:020000040800F2
:1000000000000120B9050008150500081D050008BD
:100010001F05000821050008230500080000000056
:10002000000000000000000000000000250500089E
:100030002705000800000000290500082B0500081E
:100040000906000809060008090600080906000854
:100050000906000809060008090600080906000844
:100060000906000809060008090600080906000834
:100070000906000809060008090600080906000824
:10008000090600080906000809060008000000002B
:100090000000000000000000000000000906000849
:1000A00009060008090600080906000809060008F4
:1000B00009060008090600080906000809060008E4
:1000C00009060008090600080906000809060008D4
:1000D00009060008090600080906000800000000DB
:1000E00009060008090600080906000800000000CB
:1000F00000000000000000000000000009060008E9
:1001000000000000090600080906000809060008AA
:1001100000000000000000000000000000000000DF
:100120000906000809060008090600080906000873
:1001300009060008000000000000000000000000A8
:100140000000000000000000000000000906000898
:100150000906000809060008090600080906000843
:100160000906000809060008000000000000000061
:10017000000000000000000000000000000000007F
:100180000000000009060008000000000000000058
:040190000906000854
:1001A00053B94AB9002908BF00281CBF4FF0FF31DE
:1001B0004FF0FF3000F00CB8ADF1080C6DE904CE43
:1001C00001F024F8DDF804E0DDE9022304B0704713
:1001D000704700BF000000000000000000000000A9
:1001E00001F0FF01102A2BDB10F0070F08D010F8E8
:1001F000013B013A8B422DD010F0070F42B3F6D1EC
:10020000F0B441EA012141EA014122F007047FF004
:1002100000070023F0E80256083C85EA010586EA5B
:10022000010685FA47F5A3FA87F586FA47F6A5FA97
:1002300087F68EB9EED1F0BC01F0FF0102F00702A3
:1002400032B110F8013B013A83EA010313B1F8D14E
:100250000020704701387047002D06BF354603382F
:10026000073815F0010F07D1013015F4807F02BF68
:10027000013015F4C03F0130F0BC0138704700BFB9
:1002800010B5054C237833B9044B13B10448AFF3D0
:1002900000800123237010BD7000002000000000CA
:1002A0001024000808B5034B1BB103490348AFF302
:1002B000008008BD00000000740000201024000829
:1002C0004FF06043D3F8803E13F0010F11D04FF090
:1002D0006043D3F8003E13F0010F01D1704700BF17
:1002E0004FF060431B68002BF9D0C3B24FF060425F
:1002F0001370704784B000220192104B196B41F0CB
:1003000080011963196B01F080010191019902923A
:10031000196B41F001011963196B01F001010291A0
:10032000029903921A6B42F002021A631B6B03F0EC
:1003300002030393039B04B0704700BF00380240E0
:1003400070B50C461646002504E014F8010BFFF7C3
:10035000B7FF0135B542F8DB304670BD72B6FEE737
:1003600000B585B0002300930193029303931348D3
:10037000134A02604360836003610122027680F8C1
:100380002030C3620F498162C360C26180F830309F
:10039000436100F03BFA68B91023009301230193F5
:1003A000002302936946054800F0E4FA20B905B03D
:1003B0005DF804FBFFF7D2FFFFF7D0FF8C000020B1
:1003C000002001400100000F00B595B0302200214F
:1003D00008A801F095F8002303930493059306936E
:1003E00007930193214A116C41F080511164126C02
:1003F00002F080520192019A02931D4A136823F47D
:10040000404343F400431360136803F440430293F2
:10041000029B012308934FF48033099302230E9328
:100420004FF480020F92192210928022119212939F
:100430000423139308A800F0D1FB98B90F2303936A
:1004400002230493902305934FF4805306930021D5
:10045000079103A800F018FE30B900F0BBFD15B0FD
:100460005DF804FBFFF77AFFFFF778FF00380240E2
:100470000070004008B500F0EFF8FFF7A5FFFFF7A8
:1004800039FFFFF76DFF074800F0ECF9054800F071
:100490006DFA81B2044801F03BF8642000F008F9DD
:1004A000F4E700BF8C0000202824000882B000215F
:1004B00000910B4B5A6C42F480425A645A6C02F41D
:1004C00080420092009A01911A6C42F080521A64A4
:1004D0001B6C03F080530193019B02B0704700BF77
:1004E000003802400268094B9A4200D0704782B03F
:1004F00000230193064B5A6C42F480725A645B6C81
:1005000003F480730193019B02B070470020014007
:100510000038024008B500F069FEFEE7FEE7FEE79E
:10052000FEE7FEE770477047704708B500F0AEF889
:1005300008BD70B50C461646002506E0AFF30080F6
:10054000214601F8010B01350C46B542F6DB304679
:1005500070BD4FF0FF3070474FF400534B600020E8
:1005600070470120704700207047000010B5034617
:100570000C4A0D490D48006840B10C48006803441E
:10058000521A934206D8094A136010BD0748084C16
:100590000460F2E700F08AFF0C2303604FF0FF30A5
:1005A000F3E700BF0000012000040000D400002099
:1005B000F000002070470000DFF834D00D480E49ED
:1005C0000E4A002302E0D458C4500433C4188C42AD
:1005D000F9D30B4A0B4C002301E013600432A24212
:1005E000FBD3FFF7E7FF00F067FFFFF743FF70471C
:1005F000000001200000002070000020EC24000812
:1006000070000020EC000020FEE7000010B504465A
:100610000E4B1A784FF47A73B3FBF2F30C4A10685E
:10062000B0FBF3F000F0C6FA68B90F2C01D9012035
:100630000AE0002221464FF0FF3000F0ABFA054BF4
:100640001C60002000E0012010BD00BF040000205D
:10065000000000200800002008B50B4B1A6842F487
:1006600000721A601A6842F480621A601A6842F4D2
:1006700080721A60032000F07BFA0F20FFF7C6FF9C
:10068000FFF714FF002008BD003C0240034A116838
:10069000034B1B780B441360704700BFD800002049
:1006A00004000020014B1868704700BFD8000020EC
:1006B00038B50446FFF7F6FF0546B4F1FF3F02D018
:1006C000044B1B781C44FFF7EDFF401BA042FAD3FC
:1006D00038BD00BF040000204A4B5A6822F4403263
:1006E0005A605A6841680A435A600268536823F4A2
:1006F0008073536002685368016943EA01235360C1
:100700000268536823F0407353600268536881683D
:100710000B4353600268936823F40063936002689C
:100720009368C1680B439360826A374B9A4257D0F3
:100730000268936823F07063936002689368816A2B
:100740000B4393600268936823F040539360026800
:100750009368C16A0B4393600268936823F00203B5
:10076000936002689368017E43EA4103936090F8C6
:100770002030002B3FD00268536843F4006353607D
:100780000268536823F46043536001684B68426A0F
:10079000013A43EA42334B600268D36A23F47003A0
:1007A000D3620168CB6AC269013A43EA0253CB6261
:1007B0000268936823F4007393600268936890F86A
:1007C000301043EA412393600268936823F4806306
:1007D000936002689368416943EA8123936070479C
:1007E0000268936823F0706393600268936823F053
:1007F00040539360B0E70268536823F4006353608A
:10080000CAE700BF002301400100000F38B310B554
:100810000446036C43B1236C13F0100F0BD001207E
:10082000002384F83C3010BDFFF75CFE00236364B6
:1008300084F83C30EFE7236C23F4885323F0020361
:1008400043F0020323642046FFF746FF0020606464
:10085000236C23F0030343F001032364E0E701204A
:100860007047000082B00023019390F83C30012BC8
:100870006ED0012380F83C3003689A6812F0010FB3
:1008800013D19A6842F001029A60344B1B68344AD3
:10089000A2FB03239B0C03EB4303019302E0019BA8
:1008A000013B0193019B002BF9D10268936813F07F
:1008B000010F42D0036C23F4E06323F0010343F4FF
:1008C00080730364536813F4806F05D0036C23F4C2
:1008D000405343F480530364036C13F4805F19D0D6
:1008E000436C23F006034364002380F83C306FF030
:1008F000220313601B4B5B6813F01F0F0DD10368BD
:100900009A6812F0405F25D19A6842F080429A605E
:1009100000201BE000234364E6E70368124A934289
:1009200001D0002012E09A6812F0405F14D19A685A
:1009300042F080429A60002008E0036C43F010030C
:100940000364436C43F001034364002002B070472A
:100950000220FBE70020F9E70020F7E70000002075
:1009600083DE1B4300230140002001400368D86C54
:100970007047000030B482B00022019290F83C2011
:10098000012A00F0B6800346012280F83C200A6864
:10099000092A40D90468E06892B202EB42021E3A8A
:1009A0004FF0070C0CFA02F220EA0202E2601C6827
:1009B000E0680A8802EB42021E3A8D6805FA02F2EC
:1009C0000243E2604A68062A3CD81C68606B02EB6E
:1009D0008202053A4FF01F0C0CFA02F220EA0202E2
:1009E00062631C68606B4A6802EB8202053AB1F8E8
:1009F00000C00CFA02F20243626318683E4A904259
:100A000050D018683C4A904255D0002083F83C00F2
:100A100002B030BC70470468206992B202EB420217
:100A20004FF0070C0CFA02F220EA020222611C6865
:100A300020690A8802EB42028D6805FA02F202433D
:100A40002261BFE70C2A16D81D68286B02EB8202D0
:100A5000233A1F2404FA02F220EA02022A631D68E4
:100A6000286B4A6802EB8202233A0C8804FA02F2ED
:100A700002432A63C1E71D68E86A02EB8202413A39
:100A80001F2404FA02F220EA0202EA621D68E86A00
:100A90004A6802EB8202413A0C8804FA02F20243ED
:100AA000EA62AAE70A68122AABD11448426842F403
:100AB00080024260A5E70A68103A012AA5D80F48CB
:100AC000426842F4000242600A68102A9DD10C4A32
:100AD00012680C49A1FB0212920C02EB8202520036
:100AE000019202E0019A013A0192019A002AF9D199
:100AF0008BE702208CE700BF00200140002301406B
:100B00000000002083DE1B43002808DB0901C9B276
:100B100000F1604000F5614080F80013704700F07C
:100B20000F000901C9B2014B1954704714ED00E0E0
:100B300000B500F00700C0F1070CBCF1040F28BF9E
:100B40004FF0040C031D062B0FD9C31E4FF0FF3EC0
:100B50000EFA0CF021EA000199400EFA03FE22EA97
:100B60000E0241EA02005DF804FB0023EEE70000FC
:100B7000074AD36823F4E0631B041B0C000200F453
:100B8000E060034343F0BF6343F40033D360704736
:100B900000ED00E010B50446054BD868C0F3022014
:100BA000FFF7C6FF01462046FFF7AEFF10BD00BFAE
:100BB00000ED00E00138B0F1807F0BD24FF0E02370
:100BC0005861054AF02182F823100020986107221D
:100BD0001A6170470120704700ED00E0002800F026
:100BE000E08170B582B00446036813F0010F3BD07A
:100BF0009F4B9B6803F00C03042B2CD09C4B9B68F1
:100C000003F00C03082B21D06368B3F5803F4FD06D
:100C1000B3F5A02F52D0964B1A6822F480321A6096
:100C20001A6822F480221A606368002B50D0FFF704
:100C300039FD05468E4B1B6813F4003F14D1FFF7B6
:100C400031FD401B6428F5D90320B1E1884B5B6876
:100C500013F4800FD8D0864B1B6813F4003F03D0E9
:100C60006368002B00F09F81236813F0020F54D0BB
:100C70007F4B9B6813F00C0F3ED07D4B9B6803F0BD
:100C80000C03082B33D0E368002B68D0794B01228A
:100C90001A60FFF707FD0546754B1B6813F0020F3E
:100CA00054D1FFF7FFFC401B0228F5D903207FE158
:100CB0006F4A136843F480331360B5E76C4B1A68CE
:100CC00042F480221A601A6842F480321A60ABE75C
:100CD000FFF7E8FC0546664B1B6813F4003FC3D0E2
:100CE000FFF7E0FC401B6428F5D9032060E1604B6E
:100CF0005B6813F4800FC6D15D4B1B6813F0020FC5
:100D000003D0E368012B40F05081594A136823F067
:100D1000F803216943EAC1031360236813F0080F45
:100D200042D063696BB3534B0122C3F8802EFFF7A7
:100D3000B9FC05464E4B5B6F13F0020F34D1FFF741
:100D4000B1FC401B0228F5D9032031E1484A136861
:100D500023F0F803216943EAC1031360DDE7454B43
:100D600000221A60FFF79EFC0546414B1B6813F0FA
:100D7000020FD2D0FFF796FC401B0228F5D90320C2
:100D800016E13C4B0022C3F8802EFFF78BFC054692
:100D9000374B5B6F13F0020F06D0FFF783FC401B4D
:100DA0000228F5D9032003E1236813F0040F77D05C
:100DB0002F4B1B6C13F0805F33D1002301932C4B1E
:100DC0001A6C42F080521A641B6C03F0805301933A
:100DD000019B0125284B1B6813F4807F23D0A36857
:100DE000012B34D0052B38D0214B1A6F22F0010291
:100DF0001A671A6F22F004021A67A368002B3DD00D
:100E0000FFF750FC06461A4B1B6F13F0020F46D13A
:100E1000FFF748FC801B41F288339842F3D9032046
:100E2000C6E00025D6E7144A136843F480731360C4
:100E3000FFF738FC0646104B1B6813F4807FCED1B9
:100E4000FFF730FC801B0228F5D90320B0E0084AE8
:100E5000136F43F001031367CFE7054B1A6F42F09E
:100E600004021A671A6F42F001021A67C5E700BF51
:100E7000003802400000474200700040FFF712FCBB
:100E80000646524B1B6F13F0020F08D0FFF70AFC07
:100E9000801B41F288339842F3D9032088E0EDB9F2
:100EA000A369002B00F08380484A926802F00C028C
:100EB000082A51D0022B17D0454B00221A66FFF7A3
:100EC000F1FB0446414B1B6813F0007F42D0FFF753
:100ED000E9FB001B0228F5D9032069E03B4A136CAB
:100EE00023F080531364DBE7394B00221A66FFF7C7
:100EF000D9FB0546354B1B6813F0007F06D0FFF782
:100F0000D1FB401B0228F5D9032051E0E369226A96
:100F10001343626A43EA8213A26A5208013A43EA1F
:100F20000243E26A43EA0263284A5360284B0122E3
:100F30001A66FFF7B7FB0446244B1B6813F0007FCB
:100F400006D1FFF7AFFB001B0228F5D903202FE0E5
:100F500000202DE000202BE0012B2BD01B4B5B68E9
:100F600003F48001E269914226D103F03F02216A35
:100F70008A4223D1616A47F6C0721A40B2EB811FE0
:100F80001ED103F44031A26A5208013AB1EB024F7C
:100F900018D103F07063E26AB3EB026F14D1002042
:100FA00006E001207047012002E0012000E000205F
:100FB00002B070BD0120FBE70120F9E70120F7E74F
:100FC0000120F5E70120F3E70120F1E700380240B6
:100FD00000004742014B0122DA647047000047429B
:100FE00008B5264B9B6803F00C03042B41D0082B5B
:100FF00041D1224B5A6802F03F025B6813F4800F24
:1010000012D01E4B5968C1F388111D480023A1FB63
:101010000001FFF7C5F8194B5B68C3F301430133C7
:101020005B00B0FBF3F027E0144B5868C0F3881066
:101030004FEA401CBCEB000C6EEB0E0E4FEA8E1319
:1010400043EA9C634FEA8C11B1EB0C0163EB0E0396
:10105000DB0043EA5173C90011EB000C43F10003BC
:10106000990200234FEA8C2041EA9C51FFF798F83F
:10107000D1E7034800E0034808BD00BF0038024044
:1010800040787D010024F400002800F09B8070B5BA
:101090000D4604464F4B1B6803F007038B4208D2F2
:1010A000CBB24C4A1370136803F007038B4240F035
:1010B0008B80236813F0020F17D013F0040F04D0B5
:1010C000454A936843F4E0539360236813F0080F94
:1010D00004D0414A936843F4604393603E4A936866
:1010E00023F0F003A1680B439360236813F0010F12
:1010F00032D06368012B21D09A1E012A25D9364AA5
:10110000126812F0020F61D033498A6822F003029C
:1011100013438B60FFF7C6FA06462F4B9B6803F01C
:101120000C036268B3EB820F16D0FFF7BBFA801B8B
:1011300041F288339842F0D9032042E0264A1268EF
:1011400012F4003FE0D101203BE0234A126812F084
:10115000007FD9D1012034E01E4B1B6803F0070348
:10116000AB4207D9EAB21B4B1A701B6803F00703A6
:10117000AB422DD1236813F0040F06D0164A9368B2
:1011800023F4E053E1680B439360236813F0080FE6
:1011900007D0114A936823F46043216943EAC103ED
:1011A0009360FFF71DFF0C4B9B68C3F303130B4ABF
:1011B000D35CD8400A4B18600A4B1868FFF726FA30
:1011C000002070BD012070470120FAE70120F8E7F8
:1011D0000120F6E7003C02400038024034240008B9
:1011E00000000020080000207047000008B5064BF2
:1011F000DB6813F0800F00D108BDFFF7F5FF024B4D
:1012000080229A73F8E700BF003802402DE9F047CA
:1012100086468C460846089E154674461946002B9D
:1012200040F0C2808542B2FA82F245D94AB1C2F199
:10123000200300FA02FC2EFA03F3954043EA0C0C5B
:1012400094404FEA154EA8B2BCFBFEF8230C0EFBEF
:1012500018CC08FB00F943EA0C43994528D9EB1850
:1012600008F1FF3704D2994502D9A8F102072B44AF
:10127000A3EB0903A4B2B3FBFEFC0EFB1C330CFB77
:1012800000F044EA0344A04214D92C190CF1FF33B6
:1012900004D2A04202D9ACF102032C44241A43EA3E
:1012A00007401EB1D440002334607360BDE8F0876E
:1012B0004746DDE76346F1E792BB431B01214FEA56
:1012C000154EAFB2B3FBFEFC200C0EFB1C330CFB27
:1012D00007F840EA0343984562D9EB180CF1FF3058
:1012E00004D2984502D9ACF102002B44A3EB0803C9
:1012F000A4B2B3FBFEFC0EFB1C330CFB07F744EA65
:101300000344A7424ED92C190CF1FF3304D2A74253
:1013100002D9ACF102032C44E41B43EA0040C0E7CD
:10132000C2F1200320FA03F1954090402EFA03F316
:1013300003434FEA154EAFB2B1FBFEFC0EFB1C108F
:10134000190C0CFB07F841EA0041884504FA02F445
:1013500022D969180CF1FF3004D2884502D9ACF1CA
:1013600002002944A1EB08019BB2B1FBFEFC0EFB7D
:101370001C110CFB07F743EA01439F420ED9EB18FF
:101380000CF1FF3104D29F4202D9ACF102012B448F
:10139000DB1B41EA004192E76046E3E76146F7E77D
:1013A0006046A3E76346B7E7834206D916B9002132
:1013B00008467BE7C6E900E0F9E7B3FA83F78FB99F
:1013C000834201D3724508D8BEEB020460EB0303ED
:1013D00001209C461EB9002168E73846FAE7C6E9B5
:1013E000004CF8E7C7F1200CBB4022FA0CF41C4378
:1013F0002EFA0CF120FA0CF3B84001434FEA1449DD
:101400000EFA07F5B3FBF9F81FFA84FE09FB183052
:101410000B0C08FB0EFA43EA00439A4502FA07F266
:1014200040D9E31808F1FF3004D29A4502D9A8F157
:1014300002002344A3EB0A0389B2B3FBF9F809FBCA
:10144000183308FB0EFE41EA03418E452CD9611882
:1014500008F1FF3304D28E4502D9A8F102032144DA
:1014600043EA0040A0FB0298A1EB0E014145CE46A5
:10147000434602D306D14D4504D2B9EB020E68EBC8
:1014800004030138002EA6D0B5EB0E0261EB030178
:1014900001FA0CFC22FA07F34CEA0303F940C6E90F
:1014A000003198E74046C5E74346D9E7014B186845
:1014B000704700BF0C00002070B50D4D0D4C641B33
:1014C000A4100026A64209D10B4D0C4C00F0A0FF41
:1014D000641BA4100026A64205D170BD55F8043B3C
:1014E00098470136EEE755F8043B98470136F2E796
:1014F000E4240008E4240008E4240008E8240008A8
:1015000002440346934200D1704703F8011BF9E7F8
:101510000FB40A4B13B51C6824B1A36913B9204654
:1015200000F066F805AB049AA1680193204600F02C
:10153000BBF902B0BDE8104004B070470C000020B9
:10154000002310B50446C0E90033C0E904338360CA
:1015500081814366C2818361194608225C30FFF7AE
:10156000CFFF054B6362054BA362054BE362054B5E
:101570002462236310BD00BF251B0008471B000821
:101580007F1B0008A31B0008014900F0AFB800BF93
:10159000751E000870B568234D1E5D430E4605F1AB
:1015A000740100F0E5F8044640B10021C0E90016DE
:1015B0000C30A06005F16802FFF7A2FF204670BD65
:1015C000014800F0B3B800BFDD000020014800F082
:1015D000AEB800BFDD000020014800F0A7B800BF92
:1015E000DE000020014800F0A2B800BFDE000020AD
:1015F00010B50446FFF7F0FFA3691BB1BDE810402A
:10160000FFF7F0BFC4E912332365134B134A1B687D
:10161000A262A34204BF0123A361204600F020F888
:101620006060204600F01CF8A060204600F018F82A
:101630000022E06004216068FFF782FFA0680122B9
:101640000921FFF77DFFE06802221221FFF778FFF2
:101650000123A361D2E700BF4424000889150008D4
:10166000F8B50746FFF7ACFF1E4B1E68B36913B908
:101670003046FFF7BDFF4836D6E90134013B03D5BC
:1016800033680BB33668F7E7B4F90C50D5B9164B8D
:10169000E36004F15800656600F047F8FFF796FF35
:1016A000C4E90155C4E904552560A561082229460D
:1016B00004F15C00FFF724FFC4E90D55C4E912559D
:1016C0002046F8BD6834D9E704213846FFF762FFA9
:1016D000044630600028D5D1FFF778FF0C233B602B
:1016E000EEE700BF442400080100FFFF2DE9F843A6
:1016F0000646884600F148040027D4E90195B9F16F
:10170000010905D52468002CF7D13846BDE8F883D7
:10171000AB89012B07D9B5F90E30013303D0294627
:101720003046C04707436835E9E770477047704760
:1017300070B50E4E0C463168054611B900F0E2F95D
:1017400030602146284600F0DDF9431C0AD0C41C55
:1017500024F00304A04207D0211A284600F0D2F951
:10176000013001D14FF0FF34204670BDE40000206D
:101770002DE9F041CD1C25F0030508350C2D38BFAF
:101780000C25002D074601DBA94205D90C233B603F
:1017900000263046BDE8F0812E4E00F01FFC336875
:1017A0001C4634BB29463846FFF7C2FF431C04469B
:1017B0004DD134682646002E40D123683146384644
:1017C00004EB030800F09EF980453AD12368033505
:1017D000ED1A25F0030508350C2D38BF0C252946D8
:1017E0003846FFF7A5FF01302BD023682B44236038
:1017F0000EE02268521B1ED40B2A16D96119A3428F
:10180000256018BF5960636808BF316062514B6042
:10181000384604F10B0600F0E7FB26F00706231D0F
:10182000F21AB6D09B1BA350B3E76268A3420CBF69
:1018300032605A60ECE723466468B2E73446766863
:10184000B9E70C233B60384600F0CEFBA1E72560EA
:10185000DEE700BFE00000209368013B002B10B4DE
:10186000936007DA9469A34201DB0A2902D110BC14
:1018700000F09CB91368581C10601970084610BC21
:101880007047F8B506460F461446D518AC4201D14C
:10189000002007E014F8011B3A463046FFF7DCFF52
:1018A000431CF3D1F8BD00002DE9F04F0D469DB06B
:1018B00014469846064618B183690BB9FFF798FE9F
:1018C000884B9D421BD175686B6ED90705D4AB89D7
:1018D0009A0502D4A86DFFF729FFAB891B0701D534
:1018E0002B69EBB92946304600F0C4F9C0B16B6EE4
:1018F000DC070ED54FF0FF301DB0BDE8F08F7A4BFE
:101900009D4201D1B568DFE7784B9D4208BFF5687D
:10191000DAE7AB899805EDD4A86DFFF708FFE9E792
:101920000023099320238DF82930CDF80C80302333
:10193000DFF8BC818DF82A304FF0010923469A4622
:1019400013F8012B0AB1252AF9D1BAEB040B0BD0FD
:101950005B46224629463046FFF793FF013000F0F0
:10196000A880099A5A4409929AF80030002B00F096
:10197000A08000234FF0FF32CDE905230AF1010AD0
:10198000049307938DF853301A935446584814F82B
:10199000011B0522FEF724FC049BD0B9D90644BFE5
:1019A00020228DF853201A0744BF2B228DF8532094
:1019B0009AF800202A2A14D0079A544600204FF0A3
:1019C0000A0C214611F8013B303B092B4CD970B968
:1019D00014E0A0EB080009FA00F018430490A246B6
:1019E000D3E7039A111D12680391002A01DB0792C5
:1019F00004E0524243F002030792049323782E2B13
:101A00000CD163782A2B34D1039B1A1D1B680392D7
:101A1000002BB8BF4FF0FF3302340593DFF8D4A09A
:101A2000217803225046FEF7DBFB38B1049BA0EB84
:101A30000A004022824013430134049314F8011B2E
:101A40002D488DF828100622FEF7CAFB00283FD04B
:101A50002A4B1BBB039B073323F007030833039375
:101A6000099B3B44099369E70CFB02320C460120B9
:101A7000A7E700230134059319464FF00A0C2046CE
:101A800010F8012B303A092A03D9002BC6D0059152
:101A9000C4E70CFB012104460123F0E703AB0093EC
:101AA0002A46174B04A93046AFF300800746781C3E
:101AB000D6D16B6ED90705D4AB899A0502D4A86D2F
:101AC000FFF735FEAB895B063FF514AF099813E7C6
:101AD00003AB00932A460A4B04A9304600F042FBB0
:101AE000E4E700BF682400088824000848240008B0
:101AF000A8240008AE240008B2240008000000005A
:101B00008318000838B5064D0023044608462B60AC
:101B1000FEF72CFD431C02D12B6803B1236038BDB6
:101B2000E800002010B50C46B1F90E1000F03CFCA6
:101B30000028ABBF636DA3891B1823F48053ACBF8F
:101B40006365A38110BD2DE9F0411F468B89DB053C
:101B500005460C46164605D5B1F90E1002230022A3
:101B600000F0C4F9A389B4F90E1023F48053A381C3
:101B700032463B462846BDE8F04100F069B810B552
:101B80000C46B1F90E1000F0B1F9431CA38915BF42
:101B9000606523F4805343F48053A38118BFA3816D
:101BA00010BDB1F90E1000F0D3B80000F8B50E4624
:101BB0001446054618B183690BB9FFF719FD214B8F
:101BC0009C422BD16C68A369A360A3891A072FD507
:101BD00023696BB323692068C01A6369F6B2834234
:101BE000374604DC2146284600F044F930BBA368A0
:101BF000013BA36023685A1C22601E706369013098
:101C0000834204D0A389DB0706D50A2E04D12146DE
:101C1000284600F02FF988B93846F8BD0A4B9C4297
:101C200001D1AC68CFE7094B9C4208BFEC68CAE71A
:101C30002146284600F01EF80028CBD04FF0FF3791
:101C4000EAE700BF68240008882400084824000848
:101C500038B5074D04460846114600222A601A4648
:101C6000FEF76EFB431C02D12B6803B1236038BD25
:101C7000E8000020324B70B51D6806460C4625B1C1
:101C8000AB6913B92846FFF7B3FC2E4B9C420FD12A
:101C90006C68A389B4F90C2019072CD4DD0611D483
:101CA0000923336042F04003A3814FF0FF303EE050
:101CB000254B9C4201D1AC68EBE7244B9C4208BF0A
:101CC000EC68E6E7580712D5616B41B104F14403B3
:101CD000994202D0304600F08DF900236363A38956
:101CE00023F02403A3810023636023692360A38975
:101CF00043F00803A38123694BB9A38903F420733C
:101D0000B3F5007F03D02146304600F027F9A089C3
:101D1000B4F90C2010F001030AD00023A36063691A
:101D20005B42A361236943B910F08000BAD170BD52
:101D3000810758BF6369A360F4E70020F7E700BF9D
:101D40000C000020682400088824000848240008AB
:101D500038B5064D0023044608462B60FEF7F9FB14
:101D6000431C02D12B6803B1236038BDE80000207A
:101D70008A89F8B5054610070C4657D44B68002BE6
:101D800004DC0B6C002B01DC0020F8BDE66A002EA1
:101D9000FAD0002312F480522F68216A2B6032D0CF
:101DA000606DA3895A0705D56368C01A636B0BB1D0
:101DB000236CC01A00230246E66A216A2846B0470F
:101DC000431CA38906D129681D292BD8284A0A411A
:101DD000D60727D400226260D9042269226004D584
:101DE000421C01D12B6803B96065616B2F6000292B
:101DF000CAD004F14403994202D0284600F0FAF810
:101E000000206063C1E701232846B047411CC8D1C8
:101E10002B68002BC5D01D2B01D0162B01D12F60B4
:101E2000B2E7A38943F04003A381AEE70F69002F17
:101E3000AAD093070E6808BF4B690F6018BF002334
:101E4000F61B8B60002E9FDD216AD4F828C0334634
:101E50003A462846E047002806DCA38943F04003C1
:101E6000A3814FF0FF3090E70744361AEAE700BF3E
:101E7000FEFFBFDF38B50B6905460C4613B90025D8
:101E8000284638BD18B183690BB9FFF7B1FB144B75
:101E90009C421BD16C68B4F90C30002BEFD0626E01
:101EA000D00704D4990502D4A06DFFF73FFC284663
:101EB0002146FFF75DFF636EDA070546E0D4A3898C
:101EC0009B05DDD4A06DFFF732FCD9E7054B9C42A2
:101ED00001D1AC68DFE7044B9C4208BFEC68DAE74D
:101EE00068240008882400084824000838B5074DF5
:101EF00004460846114600222A601A46FEF733FBC4
:101F0000431C02D12B6803B1236038BDE8000020D8
:101F100070B50C46B1F90E10002996B015461E4654
:101F20000DDAA38913F0800F4FF000010CBF4FF4BE
:101F300080634023002031602B6016B070BD6A467C
:101F400000F044FA0028ECDB019901F47041A1F59E
:101F50000053594259414FF48063EBE78B8973B5C5
:101F60009D0706460C4607D504F14703236023610D
:101F70000123636102B070BD01AB6A46FFF7C8FF81
:101F8000009905463046FFF7F3FB48B9B4F90C3029
:101F90009A05EFD423F0030343F00203A381E3E7A0
:101FA0000D4BB362A389206043F08003A381009BA3
:101FB0006361019B20615BB1B4F90E10304600F003
:101FC00017FA28B1A38923F0030343F00103A38187
:101FD000A3891D43A581CDE7891500080148FFF7B6
:101FE000A5BB00BFDC0000200148FFF7A0BB00BF7D
:101FF000DC00002038B50546002941D051F8043CEA
:102000000C1F002BB8BFE418FFF7E8FF1D4A136848
:1020100033B9636014602846BDE83840FFF7E4BF79
:10202000A34208D9206821188B4201BF19685B6858
:1020300009182160EDE71A465B680BB1A342FAD993
:1020400011685018A0420BD12068014450188342F7
:102050001160E0D118685B68536008441060DAE7EB
:1020600002D90C232B60D6E7206821188B4204BFCD
:1020700019685B68636004BF091821605460CAE78F
:1020800038BD00BFE00000202DE9F0471646994614
:102090008A680B69DDF820809342B8BF134633602D
:1020A00091F8432007460C460AB101333360236898
:1020B000990642BF336802333360256815F0060580
:1020C00006D104F1190AE36832689B1AAB4226DC98
:1020D00094F84320131E226818BF012392062BD4C4
:1020E00004F1430249463846C04701301ED02368F8
:1020F000226903F00603042B02BFE5683368ED1A7A
:10210000A3680CBF25EAE57500259342C4BF9B1A5E
:10211000ED1800261A34B5421AD1002008E0012338
:10212000524649463846C047013003D14FF0FF3090
:10213000BDE8F0870135C6E7E1185A1C302081F868
:102140004300224494F8451082F843100233C7E755
:102150000123224649463846C0470130E6D00136C1
:10216000D9E700002DE9FF470F7E0C9D782F91469F
:1021700080460C469A4601F1430207D8622F0AD8DE
:10218000002F00F0D480582F00F0C08004F14205E9
:1021900084F842703AE0A7F16303152BF6D801A149
:1021A00051F823F0FD210008112200088D210008BC
:1021B0008D2100088D2100088D21000811220008C2
:1021C0008D2100088D2100088D2100088D21000837
:1021D000152300083D220008CF2200088D210008A9
:1021E0008D210008372300088D2100083D220008BA
:1021F0008D2100088D210008D72200082B681A1DA8
:102200001B682A6004F1420584F8423001239FE0F4
:1022100020682B68070603F10401296001D51E68B8
:1022200003E04606FBD5B3F90060002E03DA2D2348
:10223000764284F843305A480A2312E02B6820681B
:10224000191D2960050601D51E6802E04106FBD56F
:102250001E8853486F2F0CBF08230A23002184F8DF
:1022600043106568A560002DA2BF216821F004011C
:1022700021600EB9002D4BD01546B6FBF3F103FBE0
:102280001167C75D05F8017D3746BB420E46F4D99C
:10229000082B0BD12368DE0708D5236961689942B2
:1022A000DEBF302305F8013C05F1FF35521B2261EA
:1022B000CDF800A04B4603AA21464046FFF7E4FEB6
:1022C00001304AD14FF0FF3004B0BDE8F0872368F9
:1022D00043F0200323603348782784F8457023684F
:1022E00029681F0651F8046B02D45F0648BFB6B2D6
:1022F000DF0748BF43F02003296048BF23601EB9B1
:10230000236823F0200323601023A7E72448E4E791
:102310001546BDE72B6826686169181D28603506DB
:102320001B6801D5196002E07006FBD519800023F7
:1023300023611546BCE72B681A1D2A601D68626878
:1023400000212846FDF74CFF08B1401B6060636820
:102350002361002384F84330AAE723692A464946CB
:102360004046D0470130ADD023689B0713D4E068C6
:10237000039B9842B8BF1846A6E701233246494658
:102380004046D04701309DD00135E36803995B1A80
:10239000AB42F2DCEBE7002504F11906F5E700BFDC
:1023A000B9240008CA24000838B5074D0446084679
:1023B000114600222A601A46FEF7BBF8431C02D1E0
:1023C0002B6803B1236038BDE800002038B5074D05
:1023D00000230446084611462B60FEF7BDF8431C57
:1023E00002D12B6803B1236038BD00BFE800002094
:1023F00038B5064D0023044608462B60FEF7B1F8B9
:10240000431C02D12B6803B1236038BDE8000020D3
:10241000F8B500BFF8BC08BC9E467047F8B500BFD1
:08242000F8BC08BC9E467047A1
:10242800414443203D2025640A00000000000000CC
:10243800000000000102030406070809100000203C
:102448000000000000000000000000000000000084
:102458000000000000000000000000000000000074
:102468000000000000000000000000000000000064
:102478000000000000000000000000000000000054
:102488000000000000000000000000000000000044
:102498000000000000000000000000000000000034
:1024A800232D302B2000686C4C0065666745464735
:1024B80000303132333435363738394142434445B8
:1024C8004600303132333435363738396162636427
:0424D8006566000035
:0824DC0030EDFF7F010000005C
:0424E400A502000845
:0424E8008102000865
:1024EC000024F40001000000100000001000002087
:1024FC000000000068240008882400084824000814
:10250C0000000000000000000000000000000000BF
:10251C0000000000000000000000000000000000AF
:10252C00000000000000000000000000000000009F
:10253C00000000000000000000000000000000008F
:10254C00000000000000000000000000000000007F
:04000005080005B931
:00000001FF
